:020000040800F2
:10000000C0070020C5010008D1180008C918000861
:10001000CD180008110B0008E518000800000000CA
:10002000000000000000000000000000D9180008D7
:10003000150B000800000000D5180008DD180008A6
:10004000DF010008DF010008DF010008DF01000810
:10005000DF010008DF010008DF010008DF01000800
:10006000DF010008DF010008DF010008DF010008F0
:10007000DF010008DF010008DF010008DF010008E0
:10008000DF010008DF010008DF010008DF010008D0
:10009000DF010008DF010008DF010008DF010008C0
:1000A000DF010008DF010008DF010008DF010008B0
:1000B000DF010008DF010008DF010008DF010008A0
:1000C000DF010008DF010008DF010008DF01000890
:1000D000DF010008DF010008DF010008DF01000880
:1000E000190B0008DF010008DF01000800F002F82A
:1000F00000F058F814A696E8000CB244B344DA4570
:1001000001D100F04FF8BAE80F000FA696E83000D2
:10011000A5EB040504EB0607AAEB0704A7F101070A
:100120004FEA15154FEA3414A4F10104AC4201D38F
:1001300000F038F813F0010F18BFFB1A43F0010369
:1001400000F001F8DBE718475419000074190000AB
:10015000103A24BF78C878C1FAD8520724BF30C8F3
:1001600030C144BF04680C60704700007047000055
:100170000023002400250026103A28BF78C1FBD8B0
:10018000520728BF30C148BF0B6070471FB59DE8BC
:10019000030000F085FA00F04FF81FBD10B500F025
:1001A000B4F810BD00F0E4F81146FFF7EFFF01F0DE
:1001B000ABFB00F0EBF903B4FFF7F0FF03BC00F07A
:1001C000EDFB00000948804709480047FEE7FEE7CD
:1001D000FEE7FEE7FEE7FEE7FEE7FEE7FEE7FEE7F7
:1001E00004480549054A064B70470000E11800081D
:1001F000ED000008C0010020C0070020C00300205F
:10020000C003002010B5044603E001F06DFB401C64
:1002100009D014F8010B05490028F6D1BDE81040BB
:100220000A2001F061BB4FF0FF3010BD6C000020D0
:10023000704770477047000010B54248542100F0E5
:10024000B5F94148542100F0B1F94048542100F07B
:10025000ADF93F493B483C4A3F4B08603D490A6085
:100260003A491960531C0365481C10650120086554
:100270003B48344A39A1784400F0EAF820B93848BC
:1002800078440A3800F08BF937482F4A35A1784472
:1002900000F0DEF820B9344878440A3800F07FF9DD
:1002A00032482A4A2FA1784400F0D2F820B92F48CA
:1002B00078440A3800F073F940232248DC0000211A
:1002C000224600F0A1F820B125487844543800F0C7
:1002D00066F91D4822464023002100F095F820B120
:1002E00021487844543800F05AF91848224610231F
:1002F000002100F089F8002806D01C487844BDE8A9
:100300001040563800F04BB910BD104870B5006D64
:1003100020F001040B4800F013F90B4800F010F92D
:100320000A4800F00DF909E0206D20F00105204693
:1003300000F006F9204600F040F82C46002CF3D1DE
:1003400070BD0000180000206C000020C0000020DC
:1003500000000020040000200800002072000000BF
:10036000EA17000077000000D6170000C21700004F
:10037000754600F075F9AE4605006946534620F013
:100380000700854618B020B5FFF72AFFBDE82040DA
:100390004FF000064FF000074FF000084FF0000B41
:1003A000AC46ACE8C009ACE8C009ACE8C009ACE8B0
:1003B000C00921F007018D46704770B50446051F3E
:1003C00000F052F90068002C14BF446870BD002C86
:1003D00018BFAC423CBF20466468F8D301680A18D5
:1003E000AA4218BF456003D12A680546114401603E
:1003F00028684119A1421CBF6C6070BD61686960CA
:1004000021680844286070BD70B5C468A50713D082
:10041000650211D4B2F5807F09D0B2F5007F06D015
:10042000B2F5806F08D1012300F1240106E05D1EC2
:100430006FF07F46B54201D3012070BD0161C361F9
:10044000416024F470611143C160002070BD000060
:100450002DE9F0410C461646070047D0104600F043
:100460006FF82078611C61280AD0722802D07728A2
:100470003CD102E00125002405E00225042402E02D
:10048000082448F2020511F8010B2B2806D0622837
:1004900009D011F8010C74280AD00BE045F00305CF
:1004A00044F00204EFE745F0040544F00104EAE7F4
:1004B00044F010043846214600F09FF8411C15D046
:1004C0000021316171604FF40071F560F16170617C
:1004D000200704D530460222002100F03FF9306D9C
:1004E00040F0010030653046BDE8F0810020FBE7B8
:1004F0002DE9F0410D460646104C206DC10704D091
:10050000410804D020F00104F7E722460EE0542011
:1005100000F0F5F807000ED0206D47F00101084308
:1005200054212065384600F041F83A4629463046C5
:10053000BDE8F0418CE70020D6E70000180000205D
:100540002DE9F04704464FF0FF380026C568D4E98E
:100550000497A80718D0204600F0BCF9384600F0F0
:1005600056F8002800DA4646280502D54846FFF727
:1005700024FF4C21204600F019F8206D20F00100E6
:1005800020653046BDE8F0874046FBE710B50446DD
:10059000AFF300802046BDE81040FFF70CBE10B559
:1005A00000F0E2F9BDE8104000F0D8B94FF00002C9
:1005B00000B5134694469646203922BFA0E80C5059
:1005C000A0E80C50B1F12001BFF4F7AF090728BF34
:1005D000A0E80C5048BF0CC05DF804EB890028BFB0
:1005E00040F8042B08BF704748BF20F8022B11F0D9
:1005F000804F18BF00F8012B70470EB5CDE9000100
:1006000000F034FA029069460120ABBE0EBD08B579
:10061000694600900220ABBE08BD1FB58DE80700FB
:1006200069460520ABBE04B010BD1FB58DE80F00B4
:1006300069460620ABBEF6E708B56946009009207A
:10064000ABBE08BD1CB5CDE9000169460A20ABBEB2
:100650001CBD704708B5694600900C20ABBE08BDB4
:100660000048704714010020004870471C0100201A
:10067000704770477047704738B504460A460020F7
:100680006946AFF30080002808BF38BD02460099D4
:10069000204600F090F9012038BD012000F0DFB9BC
:1006A000F8B5AFF30080054600200C460C2000BFD3
:1006B0000646A819A0420DD9324669460020AFF37C
:1006C0000080070008BF00F0CAF90098A04218BFD8
:1006D0000546C419FFF7C8FF05600746F01D20F066
:1006E00007004619284600F060F9B44208BFF8BD7B
:1006F000A21B31463868BDE8F84000F05CB970B51F
:100700000646FFF7B1FF056806F10B0020F007046D
:10071000B4429CBF002070BD2B466A68BAB1106815
:10072000A04210D304F1080188423CBF50685860D1
:1007300007D35168101941601168091B01605860A6
:100740001460101D70BD13465268002AE7D121467F
:100750002846FFF791FF0028DED170BD2DE9F0415A
:10076000044616460D464769007B80072ED0384662
:10077000FFF762FF50BB3EB3012E02D0022E25D1FF
:1007800004E0204600F031F905441DE03846FFF74B
:1007900061FFE168002841F01001E16005DA2046C0
:1007A00000F058F80120BDE8F081C9030BD562685C
:1007B000E16A914200D81146A26911442269891A5E
:1007C000814200DD08460544002D01DA0220EAE7F7
:1007D000E16A6068E268814206D29103E06203D573
:1007E00022F4003141F01002A6690027AE4213DC6A
:1007F000E16A814201D90B4600E0034603EB060C97
:100800002369ACEB030CAC4506DD814201D98C4673
:1008100000E084469C4505D1A760276042F0200097
:10082000A5620DE0AD1BE669AE1B8142A66000D952
:100830000846C01A281A20605819606022F020006B
:1008400003490840E060002084F84870ABE70000EE
:10085000BFCFD7FFC16821F4001141F08001C16012
:1008600000218160016070472DE9F74F15460C4665
:100870004FF0FF3B3848D768D2F814A0074209D0A0
:100880005046A969FFF7DEFE002819DB3248C04355
:100890000740EF604FF000496FF000484C4501D32E
:1008A000464600E0264600993B4650463246FFF752
:1008B000B4FEA96920F00042B21A1144A96128B11E
:1008C0002846FFF7C7FF5846BDE8FE8FA41BE5D1B9
:1008D0000020F9E770B504460569C06A616888427E
:1008E00000D80846E16821F42011E160C90312D55F
:1008F000A84208D02246411B2846FFF7B5FF10B199
:100900004FF0FF3070BD0020E562C4E90150E0689F
:1009100020F48030E060002070BD10B50446C0684F
:1009200020F02000E060A16AA06988420DD0204636
:10093000FFF7D0FFE06820F4405040F01000E06086
:10094000A06AA0612069E062606044F24001E06852
:100950008843E06010BD000010000200002801D0B4
:1009600000F01CB87047000010B5014602A000F06E
:100970005DF8012010BD00005349475254524544D0
:100980003A2052656469726563743A2063616E2728
:1009900074206F70656E3A20000000000149182035
:1009A000ABBEFEE7260002007047002101604160F7
:1009B00070470C207047034640688C46002818BFDB
:1009C00088423CBF03464068F8D318681844884200
:1009D00007D00CF1030020F00700001D411A521A45
:1009E0000146081D0A60FFF7E8BC10B50146C26861
:1009F000900703D0900607D5886A0AE000F05CF8FB
:100A000001210160881E10BD8B69486818440B697C
:100A1000C01A91F848301BB191F84910401A10BD26
:100A20001103FCD50028FADD401E10BD70B5054647
:100A30000C460A2000E06D1C00F037F835B128782C
:100A40000028F8D102E0641C00F02FF814B12078DF
:100A50000028F8D1BDE870400A2000F026B810B593
:100A600000F02EF8BDE81040FFF778BF10B5431C2A
:100A700002E010F8011B71B18107FAD14FF0013289
:100A800002C88C1A8C4314EAC211F9D0C01A0A06A3
:100A900003D0C01E10BDC01A10BD0A0401D0801EB4
:100AA00010BD0902FCD0401E10BD08B569468DF886
:100AB00000000320ABBE08BD0048704714010020B1
:100AC00010B5012805D0002103A0FFF7AFFF0120DA
:100AD00010BD09A1F8E7000053494752544D454D58
:100AE0003A204F7574206F662068656170206D65CF
:100AF0006D6F7279000000003A2048656170206DCA
:100B0000656D6F727920636F7272757074656400C1
:100B1000FEE70000704700004FF4005000F002B8FC
:100B20007047000040F21441C4F201010A68024219
:100B300014BF08607047FFF7F3BF00002DE9F04FC6
:100B400082B00E68002E00F0FD8041F20042C4F237
:100B50000102042340F2004E904208BF03234FF6E7
:100B6000FF7CC4F2010E009300240123C1F2100C9B
:100B70004FF0000A4FF000094BE000BF41F20002C5
:100B8000C4F20102009F904208BF022704F00C0348
:100B90000F229A402BEA020207FA03F34FEA9A0562
:100BA0001A4346F825204E6840F20C45F202DEF862
:100BB000082054BF22EA080242EA0802C4F20105F2
:100BC000CEF808202A68B30254BF22EA080242EA9B
:100BD00008022A60B303DEF8042054BF22EA0802A8
:100BE00042EA0802F303CEF80420DEF800204FF0BA
:100BF000010354BF22EA080242EA0802CEF80020AC
:100C00000E680AF1010A36FA0AF204F1040400F04F
:100C1000998003FA0AFB16EA0B08F1D04E68664584
:100C200012DC122E56D8DFE806F0350B4D4955552B
:100C3000555555555555555555555545510000BFB8
:100C4000D1F80C9046E000BF4FF6FF72C1F22102CE
:100C500096420FDC0022C1F2110296421AD0002205
:100C6000C1F21202964215D00022C1F22102964230
:100C700010D02FE00022C1F2220296420AD00022B8
:100C8000C1F23102964205D00022C1F232029642F0
:100C900020D100BF8A684AB1012A14BFC0F814B03D
:100CA000C0F810B04FF0080914E000BF4FF004097D
:100CB00010E000BFCA6802F104090BE04FF0000920
:100CC00008E000BFCA6802F1080903E0CA6802F13F
:100CD0000C0900BF02462646B8F5807F24BF0432C7
:100CE000203E17680F25B54027EA050509FA06F6E4
:100CF00035431560CA79D2067FF582AF41F21803F9
:100D0000C4F202031A68AEF57E7642F001021A6060
:100D10001A6802F001020192019A2AF0030256F8C1
:100D200002B040F60002C4F20102904208D040F640
:100D30000042C4F2010290427FF420AF012725E770
:100D4000002723E702B0BDE8F08F0000002A08BFAB
:100D5000090401617047000040F2BC10C2F20000BB
:100D60000068704740F20C0040F2BC11C2F2000073
:100D7000C2F2000100780A68104408607047000061
:100D800080B542F20000C4F20200016841F0100197
:100D90000160032000F08CF8002000F005F800F05E
:100DA00027F8002080BD000070B540F20C06C2F2AA
:100DB000000640F214013278C2F200014FF47A7357
:100DC0000968B3FBF2F20446B1FBF2F1084600F009
:100DD00085FB0F2C4FF0010508D838B94FF0FF30D4
:100DE00021460022002500F037F87460284670BDC7
:100DF00082B041F21800C4F202000168022241F000
:100E000001010160016801F001010191019941684E
:100E100041F080514160406800F08050009000989F
:100E20000420C4F20100016862F31A61016002B09B
:100E300070470000002848BF704700F01F010122E2
:100E400002FA01F11C2202EAD0004EF20012CEF2A8
:100E5000000281507047000010B54EF60C5CCEF2D7
:100E6000000CDCF80030C3F3022E8EF00704042CD3
:100E700028BF0424BEF103034FF0FF3E0EFA04F432
:100E800038BF0023A14399400EFA03F39A4311435C
:100E900000F00F0200F160430901043A03F56443D6
:100EA0006244002848BF02F10C03197010BD000015
:100EB0004EF60C51CEF200010A684FF6FF031A40BD
:100EC00060F30A2242F0806040F0FD7008607047D5
:100ED000002804BF012070472DE9F04381B042F2A1
:100EE0000008C4F202080446D8F800000D4600F0DD
:100EF000070088420CD2D8F8000020F007002843F1
:100F0000C8F80000D8F8000000F00700A8426CD133
:100F1000206841F204098107C4F2020917D541078C
:100F200005D5D9F8001041F4E061C9F800100107B7
:100F300005D5D9F8001041F46051C9F80010D9F86E
:100F40000010A26821F0F0011143C9F80010C00799
:100F500042D1D8F8000000F00700A8420CD9D8F818
:100F6000000020F007002843C8F80000D8F800006F
:100F700000F00700A84238D12068410707D5D9F80A
:100F80000010E26821F4E0611143C9F80010000785
:100F900008D5D9F80000216920F4605040EAC1006A
:100FA000C9F80000D9F8002002F00C00082841F22E
:100FB0000020C0F27A004DD141F68A23C2F383416A
:100FC000C0F60003595CD20338D440F60010C0F2DA
:100FD0003D0048433EE000BF606859F8041C022809
:100FE00008D0012826D1890306D4012001B0BDE82C
:100FF000F08300BF8901F8D5D9F8001021F0030172
:101000000843C9F80000FFF7A7FE064641F28837FB
:10101000D9F80000616800F00C00B0EB810F98D0A7
:10102000FFF79AFE801BB842F2D9032001B0BDE859
:10103000F08300BF8907D8D5DEE700BFD9F80020CC
:1010400041F68823C2F34042C0F600039A5C48434D
:10105000B0FBF2F0D9F8001041F67022C1F3031191
:10106000C0F60002515C40F2140220FA01F140F295
:101070001000C2F200000068C2F200021160FFF727
:1010800093FE002001B0BDE8F083000040F21400A0
:1010900041F20401C2F20000C4F2020100680968D2
:1010A00041F68022C1F30221C0F60002515CC84023
:1010B0007047000040F2140041F20401C2F2000047
:1010C000C4F202010068096841F68022C1F3C2211E
:1010D000C0F60002515CC84070470000002804BF01
:1010E000012070472DE9F04182B00446007841F2BA
:1010F0000006C007C4F202060CD0706800F00C00B5
:10110000042840F081803068800303D5606800289F
:1011100000F04681207880071BD5706810F00C0F16
:1011200009D0706800F00C00082840F087807068D3
:10113000C00300F183803068800703D5206901284F
:1011400040F02E813068616920F0F80040EAC1006B
:1011500030602078000713D4207840072CD4E5694C
:10116000002D00F01881706800F00C00082840F095
:10117000A780012D40F00481012002B0BDE8F0817C
:10118000A069002800F084800020C4F242200121E0
:10119000C0F88014FFF7E0FD054600BF706A8007C5
:1011A00000F1B280FFF7D8FD401B0228F6D90320DA
:1011B00002B0BDE8F08100BFF0695FEAC00808D462
:1011C000F06940F08050F061F06900F080500090CC
:1011D000009847F20007C4F200073868C00549D4F8
:1011E000386840F480703860FFF7B6FD054600BFF0
:1011F0003868C0053ED4FFF7AFFD401B6428F7D91F
:10120000032002B0BDE8F081706800F00C000828EF
:1012100003D17068C0033FF576AF6168306800297C
:1012200000F00C81B1F5A02F00F00081B1F5803FF6
:1012300040F01A8140F480301CE100BF2069002892
:1012400040F20000C4F2422000F0888001210160D9
:10125000FFF782FD054600BF306880073FF572AF9B
:10126000FFF77AFD401B0228F6D9032002B0BDE843
:10127000F08100BFE168306A002900F09D800529F7
:1012800000F09280012940F0AF8040F00100B1E011
:101290000020C4F242200021C0F88014FFF75CFD5A
:1012A000054600BF706A80077FF556AFFFF754FD13
:1012B000401B0228F6D9032002B0BDE8F08100BF30
:1012C0000027C4F2422700203866FFF745FD022DB3
:1012D00005460DD13068800140F1DE80FFF73CFD0E
:1012E000401B02284FF00300F4D902B0BDE8F081A2
:1012F000306880014FD5FFF72FFD401B02284FF0CB
:101300000300F5D9F1E700BF40F21400C2F200007B
:10131000006844F6D351C1F26201A0FB0101480A02
:10132000019000BF00BF0198411E002801913FF4C9
:1013300013AF00BF0198411E002801913FF40CAF8C
:1013400000BF0198411E002801913FF405AF00BF86
:101350000198411E00280191E4D1FDE600210160C1
:10136000FFF7FAFC054600BF306880077FF5F1AE55
:10137000FFF7F2FC401B02284FF00300F4D9B4E75A
:101380007068216A00F480328A4209D1616A00F4EF
:101390007010884204D1002002B0BDE8F08100BF87
:1013A000012002B0BDE8F08140F004003062306AF4
:1013B00040F001001EE000BF20F001003062306A02
:1013C00020F004003062FFF7C7FC054641F2883781
:1013D000306A800720D5FFF7BFFC401BB8424FF0B2
:1013E0000300F5D981E700BF20F001003062306AC8
:1013F00020F004003062FFF7AFFC054641F2883769
:10140000306A800708D4FFF7A7FC401BB842F7D921
:10141000032002B0BDE8F081B8F1000F3FF59FAEA8
:10142000F06920F08050F06199E600BF40F4802020
:101430003060306840F480301CE000BF20F4803021
:101440003060306820F480203060FFF785FC05466E
:10145000306880037FF55EAEFFF77EFC401B64289A
:101460004FF00300F4D940E720F48030306030685A
:1014700020F480203060FFF76FFC05463068800361
:101480003FF548AEFFF768FC401B6428F6D90320FF
:1014900002B0BDE8F08100BF206AB0F5803F05D101
:1014A0007168A26821F40031114371607168626A49
:1014B00021F4741111430843706001203866FFF76E
:1014C0004BFC0446306880013FF565AFFFF744FCF4
:1014D000001B02284FF00300F4D906E7411E00204C
:1014E000B0EB116F1CBF012070474EF21002CEF21C
:1014F000000251604EF62351CEF20001F0230B7032
:101500000721906011607047002804BF01207047D8
:1015100010B5044690F8410028B9002084F8400036
:10152000204600F063F8242084F841002068D4E9C4
:101530000212C36823F40053C360036923F44053C9
:101540001A430261D4E904231143C268194341F2EA
:101550000C639A431143C1604169A26921F440714F
:10156000114343F60002C4F201029042416103D0EC
:10157000FFF78CFD02E000BFFFF79CFDD4E90023DC
:10158000192148439900B0FBF1F048F21F5CC5F205
:10159000EB1CA0FB0C314FF69C734909C0F6FF739E
:1015A00001FB0300322303EB0010A0FB0C03F0202F
:1015B00000EA531000EB0110C3F34311084490609C
:1015C0001069202120F490401061506920F02A0019
:1015D0005061D06840F40050D0600020606484F80E
:1015E000411084F84210606310BD000080B586B0E1
:1015F000016844F20040C4F2000081424FF0000153
:10160000CDE90411CDE9021102D006B080BD00BFC2
:1016100041F21801C4F202014A6800F5444042F464
:1016200000324A604A6802F400320192019A0A6864
:1016300042F004020A60096801F004010191019975
:101640000C21029102210391059102A9FFF776FA7C
:1016500006B080BD2DE9F04381B0044690F841000A
:10166000202809D1884600294FF0010018BF002A20
:1016700006D101B0BDE8F083022001B0BDE8F083DF
:101680000020606421201D4684F841001646FFF7C3
:1016900063FBA684E684A1680646B1F5805F03D1AA
:1016A0002069002800F0948047464FF00008E18C44
:1016B0002068002900F0928005F101090BE000BFCD
:1016C00047B317F8011B4160E18C0139E184E18CDB
:1016D000002900F0838001680906F1D4B9F1000FF8
:1016E0000AD0EDB1FFF738FB801BA84218D820685C
:1016F00001680906F6D5E3E701680906E0D4016848
:1017000009065CBF01685FEA0161D9D40168090676
:10171000F2D5D5E738F8021B00276FF35F21D2E737
:10172000206850E8030F216820F4D07041E80302DC
:10173000BAB3206850E8030F216820F4D07041E864
:10174000030272B3206850E8030F216820F4D070C0
:1017500041E803022AB3206850E8030F216820F40F
:10176000D07041E80302002ADAD11AE0206850E87C
:10177000050F216820F0010041E80502DAB1206878
:1017800050E8050F216820F0010041E8050292B100
:10179000206850E8050F216820F0010041E80502AB
:1017A0004AB1206850E8050F216820F0010041E8A7
:1017B0000502002ADAD1202084F8410084F8420092
:1017C000002084F84000032001B0BDE8F08300BF92
:1017D0000027E18C206800297FF46EAF016849067C
:1017E0000FD4F5B1691C17D10168490609D4016805
:1017F00049065CBF01685FEA416102D4016849069D
:10180000F2D5202084F84100002001B0BDE8F0832B
:10181000206800684006F4D4FFF79EFA801BA842B7
:10182000F6D9206850E8030F216820F4D07041E811
:101830000302EAB3206850E8030F216820F4D07057
:1018400041E80302A2B3206850E8030F216820F4A6
:10185000D07041E803025AB3206850E8030F2168B2
:1018600020F4D07041E80302002ADAD120E000BF62
:10187000206850E8050F216820F0010041E80502CA
:10188000002A98D0206850E8050F216820F0010058
:1018900041E80502002A3FF48EAF206850E8050FAA
:1018A000216820F0010041E80502002A3FF483AFDF
:1018B000206850E8050F216820F0010041E805028A
:1018C000002AD5D177E70000FEE70000FEE7000020
:1018D000FEE700007047000070470000FFF742BAC3
:1018E00070470000FEE7000080B582B0019040F232
:1018F0007410C2F2000001A901224FF6FF73FFF736
:10190000A9FE019802B080BD90B0FFF739FA00241B
:101910000120CDE90B44CDE909440A9010200B9039
:101920004FF4601002250F9006A8CDE907440695F4
:10193000CDE90D54FFF7D2FB20B1EFF3108072B662
:10194000FEE700BF0F20CDE901054FF48060CDE92F
:10195000040401A802210394FFF7BAFA20B1EFF3BF
:10196000108072B6FEE700BF002641F21800CDE9F4
:101970000866CDE90666C4F20200016840F600047C
:1019800041F0100101600168C4F2010401F010018E
:10199000019101990168002241F020010160016874
:1019A000202701F0200101910199016841F0040113
:1019B0000160016801F0040101910199016841F0A1
:1019C000080101600068202100F0080001900198E2
:1019D0002046FFF7BBF94FF4005006900020C1F2FB
:1019E000110006ADCDE9070604F500602946FFF7B2
:1019F000A5F80120CDE907060220099020462946D6
:101A00000697FFF79BF8282000210022FFF724FA11
:101A10002820FFF70FFA40F27410A4F54441C2F2F7
:101A200000000C234FF4E13280E84600C0E9036671
:101A3000C0E90536C661FFF767FD28B1EFF31080F6
:101A400072B600BFFEE700BF02A400BF2046FEF74B
:101A5000D9FBFBE768656C6C6F20776F726C640D67
:101A6000000000003A7474003A7474003A74740010
:101A7000000000000000000001020304060708093E
:101A8000000000000102030401020203040506072E
:101A900008090A0B0C0D0E0F10100000C01A0008E8
:101AA000000000201800000050010008D81A0008AB
:101AB00018000020A80700007001000800000000C6
:101AC0000000000000000000000000000100000015
:081AD000100000000024F400E6
:04000005080000ED02
:00000001FF
